{
  "_format": "hh-sol-artifact-1",
  "contractName": "AdsBoard",
  "sourceName": "contracts/AdsBoard.sol",
  "abi": [
    {
      "inputs": [
        {
          "internalType": "string",
          "name": "_basePath",
          "type": "string"
        }
      ],
      "stateMutability": "nonpayable",
      "type": "constructor"
    },
    {
      "anonymous": false,
      "inputs": [
        {
          "indexed": false,
          "internalType": "uint32",
          "name": "id",
          "type": "uint32"
        },
        {
          "indexed": false,
          "internalType": "address",
          "name": "billboardAddress",
          "type": "address"
        }
      ],
      "name": "AdDisplayed",
      "type": "event"
    },
    {
      "anonymous": false,
      "inputs": [
        {
          "indexed": false,
          "internalType": "uint32",
          "name": "id",
          "type": "uint32"
        }
      ],
      "name": "AdPurchased",
      "type": "event"
    },
    {
      "inputs": [],
      "name": "adCount",
      "outputs": [
        {
          "internalType": "uint32",
          "name": "",
          "type": "uint32"
        }
      ],
      "stateMutability": "view",
      "type": "function"
    },
    {
      "inputs": [
        {
          "internalType": "uint32",
          "name": "",
          "type": "uint32"
        }
      ],
      "name": "ads",
      "outputs": [
        {
          "internalType": "address",
          "name": "author",
          "type": "address"
        },
        {
          "internalType": "uint32",
          "name": "duration",
          "type": "uint32"
        },
        {
          "internalType": "bytes32",
          "name": "imageHash",
          "type": "bytes32"
        },
        {
          "internalType": "string",
          "name": "path",
          "type": "string"
        },
        {
          "internalType": "bool",
          "name": "isDisplayed",
          "type": "bool"
        }
      ],
      "stateMutability": "view",
      "type": "function"
    },
    {
      "inputs": [
        {
          "internalType": "uint32",
          "name": "adId",
          "type": "uint32"
        }
      ],
      "name": "billboardDisplayed",
      "outputs": [],
      "stateMutability": "nonpayable",
      "type": "function"
    },
    {
      "inputs": [
        {
          "internalType": "bytes32",
          "name": "imageHash",
          "type": "bytes32"
        },
        {
          "internalType": "uint32",
          "name": "duration",
          "type": "uint32"
        }
      ],
      "name": "buyAd",
      "outputs": [
        {
          "internalType": "uint32",
          "name": "id",
          "type": "uint32"
        }
      ],
      "stateMutability": "nonpayable",
      "type": "function"
    },
    {
      "inputs": [
        {
          "internalType": "uint32",
          "name": "adId",
          "type": "uint32"
        }
      ],
      "name": "getAd",
      "outputs": [
        {
          "internalType": "uint32",
          "name": "id",
          "type": "uint32"
        },
        {
          "internalType": "address",
          "name": "author",
          "type": "address"
        },
        {
          "internalType": "uint32",
          "name": "duration",
          "type": "uint32"
        },
        {
          "internalType": "bytes32",
          "name": "imageHash",
          "type": "bytes32"
        },
        {
          "internalType": "string",
          "name": "path",
          "type": "string"
        },
        {
          "internalType": "bool",
          "name": "isDisplayed",
          "type": "bool"
        }
      ],
      "stateMutability": "view",
      "type": "function"
    },
    {
      "inputs": [],
      "name": "registerAsBillboard",
      "outputs": [],
      "stateMutability": "nonpayable",
      "type": "function"
    },
    {
      "inputs": [
        {
          "internalType": "address",
          "name": "",
          "type": "address"
        }
      ],
      "name": "registeredBillboards",
      "outputs": [
        {
          "internalType": "bool",
          "name": "",
          "type": "bool"
        }
      ],
      "stateMutability": "view",
      "type": "function"
    }
  ],
  "bytecode": "0x60806040523480156200001157600080fd5b506040516200132b3803806200132b8339818101604052810190620000379190620001db565b336000806101000a81548173ffffffffffffffffffffffffffffffffffffffff021916908373ffffffffffffffffffffffffffffffffffffffff16021790555080600190805190602001906200008f929190620000b9565b506000600260006101000a81548163ffffffff021916908363ffffffff1602179055505062000390565b828054620000c790620002b5565b90600052602060002090601f016020900481019282620000eb576000855562000137565b82601f106200010657805160ff191683800117855562000137565b8280016001018555821562000137579182015b828111156200013657825182559160200191906001019062000119565b5b5090506200014691906200014a565b5090565b5b80821115620001655760008160009055506001016200014b565b5090565b6000620001806200017a8462000249565b62000220565b9050828152602081018484840111156200019957600080fd5b620001a68482856200027f565b509392505050565b600082601f830112620001c057600080fd5b8151620001d284826020860162000169565b91505092915050565b600060208284031215620001ee57600080fd5b600082015167ffffffffffffffff8111156200020957600080fd5b6200021784828501620001ae565b91505092915050565b60006200022c6200023f565b90506200023a8282620002eb565b919050565b6000604051905090565b600067ffffffffffffffff82111562000267576200026662000350565b5b62000272826200037f565b9050602081019050919050565b60005b838110156200029f57808201518184015260208101905062000282565b83811115620002af576000848401525b50505050565b60006002820490506001821680620002ce57607f821691505b60208210811415620002e557620002e462000321565b5b50919050565b620002f6826200037f565b810181811067ffffffffffffffff8211171562000318576200031762000350565b5b80604052505050565b7f4e487b7100000000000000000000000000000000000000000000000000000000600052602260045260246000fd5b7f4e487b7100000000000000000000000000000000000000000000000000000000600052604160045260246000fd5b6000601f19601f8301169050919050565b610f8b80620003a06000396000f3fe608060405234801561001057600080fd5b506004361061007d5760003560e01c8063cdd4a76f1161005b578063cdd4a76f14610104578063cf27ebb914610139578063cfb49bb814610155578063f57e2a801461015f5761007d565b806394fa428b146100825780639c89dcf3146100b6578063c666ad46146100d4575b600080fd5b61009c60048036038101906100979190610a8b565b61018f565b6040516100ad959493929190610b92565b60405180910390f35b6100be61028a565b6040516100cb9190610c67565b60405180910390f35b6100ee60048036038101906100e99190610a26565b6102a0565b6040516100fb9190610bec565b60405180910390f35b61011e60048036038101906101199190610a8b565b6102c0565b60405161013096959493929190610cab565b60405180910390f35b610153600480360381019061014e9190610a8b565b61045a565b005b61015d610564565b005b61017960048036038101906101749190610a4f565b610651565b6040516101869190610c67565b60405180910390f35b60046020528060005260406000206000915090508060000160009054906101000a900473ffffffffffffffffffffffffffffffffffffffff16908060000160149054906101000a900463ffffffff16908060010154908060020180546101f490610df4565b80601f016020809104026020016040519081016040528092919081815260200182805461022090610df4565b801561026d5780601f106102425761010080835404028352916020019161026d565b820191906000526020600020905b81548152906001019060200180831161025057829003601f168201915b5050505050908060030160009054906101000a900460ff16905085565b600260009054906101000a900463ffffffff1681565b60036020528060005260406000206000915054906101000a900460ff1681565b6000806000806060600080600460008963ffffffff1663ffffffff1681526020019081526020016000206040518060a00160405290816000820160009054906101000a900473ffffffffffffffffffffffffffffffffffffffff1673ffffffffffffffffffffffffffffffffffffffff1673ffffffffffffffffffffffffffffffffffffffff1681526020016000820160149054906101000a900463ffffffff1663ffffffff1663ffffffff1681526020016001820154815260200160028201805461038b90610df4565b80601f01602080910402602001604051908101604052809291908181526020018280546103b790610df4565b80156104045780601f106103d957610100808354040283529160200191610404565b820191906000526020600020905b8154815290600101906020018083116103e757829003601f168201915b505050505081526020016003820160009054906101000a900460ff161515151581525050905087816000015182602001518360400151846060015185608001519650965096509650965096505091939550919395565b60011515600360003373ffffffffffffffffffffffffffffffffffffffff1673ffffffffffffffffffffffffffffffffffffffff16815260200190815260200160002060009054906101000a900460ff161515146104ed576040517f08c379a00000000000000000000000000000000000000000000000000000000081526004016104e490610c27565b60405180910390fd5b6001600460008363ffffffff1663ffffffff16815260200190815260200160002060030160006101000a81548160ff0219169083151502179055507f48fa7894e4f83a57b9cdac3407a713fa1117d6948d8727f0b1a532107ce005848133604051610559929190610c82565b60405180910390a150565b60001515600360003373ffffffffffffffffffffffffffffffffffffffff1673ffffffffffffffffffffffffffffffffffffffff16815260200190815260200160002060009054906101000a900460ff161515146105f7576040517f08c379a00000000000000000000000000000000000000000000000000000000081526004016105ee90610c47565b60405180910390fd5b6001600360003373ffffffffffffffffffffffffffffffffffffffff1673ffffffffffffffffffffffffffffffffffffffff16815260200190815260200160002060006101000a81548160ff021916908315150217905550565b60008060009054906101000a900473ffffffffffffffffffffffffffffffffffffffff1673ffffffffffffffffffffffffffffffffffffffff163373ffffffffffffffffffffffffffffffffffffffff16146106e2576040517f08c379a00000000000000000000000000000000000000000000000000000000081526004016106d990610c07565b60405180910390fd5b6001600260009054906101000a900463ffffffff166107019190610d2f565b600260006101000a81548163ffffffff021916908363ffffffff16021790555060006040518060a001604052803373ffffffffffffffffffffffffffffffffffffffff1681526020018463ffffffff1681526020018581526020016001805461076990610df4565b80601f016020809104026020016040519081016040528092919081815260200182805461079590610df4565b80156107e25780601f106107b7576101008083540402835291602001916107e2565b820191906000526020600020905b8154815290600101906020018083116107c557829003601f168201915b505050505081526020016000151581525090508060046000600260009054906101000a900463ffffffff1663ffffffff1663ffffffff16815260200190815260200160002060008201518160000160006101000a81548173ffffffffffffffffffffffffffffffffffffffff021916908373ffffffffffffffffffffffffffffffffffffffff16021790555060208201518160000160146101000a81548163ffffffff021916908363ffffffff1602179055506040820151816001015560608201518160020190805190602001906108bb929190610944565b5060808201518160030160006101000a81548160ff0219169083151502179055509050507fab532dcba03729b3537291ef9808897b19cf7d671a04c2596badba1643de4dc8600260009054906101000a900463ffffffff166040516109209190610c67565b60405180910390a1600260009054906101000a900463ffffffff1691505092915050565b82805461095090610df4565b90600052602060002090601f01602090048101928261097257600085556109b9565b82601f1061098b57805160ff19168380011785556109b9565b828001600101855582156109b9579182015b828111156109b857825182559160200191906001019061099d565b5b5090506109c691906109ca565b5090565b5b808211156109e35760008160009055506001016109cb565b5090565b6000813590506109f681610f10565b92915050565b600081359050610a0b81610f27565b92915050565b600081359050610a2081610f3e565b92915050565b600060208284031215610a3857600080fd5b6000610a46848285016109e7565b91505092915050565b60008060408385031215610a6257600080fd5b6000610a70858286016109fc565b9250506020610a8185828601610a11565b9150509250929050565b600060208284031215610a9d57600080fd5b6000610aab84828501610a11565b91505092915050565b610abd81610d69565b82525050565b610acc81610d7b565b82525050565b610adb81610d87565b82525050565b6000610aec82610d13565b610af68185610d1e565b9350610b06818560208601610dc1565b610b0f81610e84565b840191505092915050565b6000610b27600d83610d1e565b9150610b3282610e95565b602082019050919050565b6000610b4a601883610d1e565b9150610b5582610ebe565b602082019050919050565b6000610b6d601c83610d1e565b9150610b7882610ee7565b602082019050919050565b610b8c81610db1565b82525050565b600060a082019050610ba76000830188610ab4565b610bb46020830187610b83565b610bc16040830186610ad2565b8181036060830152610bd38185610ae1565b9050610be26080830184610ac3565b9695505050505050565b6000602082019050610c016000830184610ac3565b92915050565b60006020820190508181036000830152610c2081610b1a565b9050919050565b60006020820190508181036000830152610c4081610b3d565b9050919050565b60006020820190508181036000830152610c6081610b60565b9050919050565b6000602082019050610c7c6000830184610b83565b92915050565b6000604082019050610c976000830185610b83565b610ca46020830184610ab4565b9392505050565b600060c082019050610cc06000830189610b83565b610ccd6020830188610ab4565b610cda6040830187610b83565b610ce76060830186610ad2565b8181036080830152610cf98185610ae1565b9050610d0860a0830184610ac3565b979650505050505050565b600081519050919050565b600082825260208201905092915050565b6000610d3a82610db1565b9150610d4583610db1565b92508263ffffffff03821115610d5e57610d5d610e26565b5b828201905092915050565b6000610d7482610d91565b9050919050565b60008115159050919050565b6000819050919050565b600073ffffffffffffffffffffffffffffffffffffffff82169050919050565b600063ffffffff82169050919050565b60005b83811015610ddf578082015181840152602081019050610dc4565b83811115610dee576000848401525b50505050565b60006002820490506001821680610e0c57607f821691505b60208210811415610e2057610e1f610e55565b5b50919050565b7f4e487b7100000000000000000000000000000000000000000000000000000000600052601160045260246000fd5b7f4e487b7100000000000000000000000000000000000000000000000000000000600052602260045260246000fd5b6000601f19601f8301169050919050565b7f4e6f7420746865206f776e657200000000000000000000000000000000000000600082015250565b7f4e6f7420726567697374657265642062696c6c626f6172640000000000000000600082015250565b7f416c726561647920726567697374657265642062696c6c626f61726400000000600082015250565b610f1981610d69565b8114610f2457600080fd5b50565b610f3081610d87565b8114610f3b57600080fd5b50565b610f4781610db1565b8114610f5257600080fd5b5056fea2646970667358221220b7a3555efd80870099139ff20dbe7816dcc4e58d4b8ea6f2ca2e93f3664b57e364736f6c63430008040033",
  "linkReferences": {},
  "deployedLinkReferences": {}
}